:03000000020006F5
:03005F0002000399
:0300030002007088
:1C0062007E507FC31EBEFF011FEE4F70F7227590FF12006275900012006280F24E
:06003500E478FFF6D8FD9F
:200013007900E94400601B7A00900082780175A000E493F2A308B8000205A0D9F4DAF27511
:02003300A0FF2C
:20003B007800E84400600A790175A000E4F309D8FC7800E84400600C7900900001E4F0A3C3
:04005B00D8FCD9FAFA
:0D00060075810712007EE582600302000391
:04007E007582002265
:00000001FF
