:03000000020006F5
:03005F0002000399
:030003000200AB4D
:200062007F147EF8DEFEDFFA2220B51312006220B50A05087408B5080375080030B5FD2299
:200082008508F005F0E509800225E0D5F0FBF50A7408C39508F5F005F0E5098002C313D5E7
:1D00A200F0FBF50B450AF590227508007509FE7590FF7590FE12006B12008280F8D7
:06003500E478FFF6D8FD9F
:200013007900E94400601B7A009000C3780175A000E493F2A308B8000205A0D9F4DAF275D0
:02003300A0FF2C
:20003B007800E84400600A790175A000E4F309D8FC7800E84400600C7900900001E4F0A3C3
:04005B00D8FCD9FAFA
:0D00060075810B1200BFE58260030200034C
:0400BF007582002224
:00000001FF
