:03000000020006F5
:03005F0002000399
:0300030002007484
:200062007E107F278E048F051EBEFF011FEC4D70F3227FFF20A0088F06EE14F590AF90C00A
:0800820007120062D00780ECB8
:06003500E478FFF6D8FD9F
:200013007900E94400601B7A0090008E780175A000E493F2A308B8000205A0D9F4DAF27505
:02003300A0FF2C
:20003B007800E84400600A790175A000E4F309D8FC7800E84400600C7900900001E4F0A3C3
:04005B00D8FCD9FAFA
:0D00060075810712008AE582600302000385
:04008A007582002259
:00000001FF
