:03000000020006F5
:03005F0002000399
:0300030002007484
:200062007E107F278E048F051EBEFF011FEC4D70F3227EFE7F007D0020A025BD0702801AAE
:200082008E03EFC313CB13CBFC8E02EAF4FA8B0149F5908B068C070D80067D007EFE7F0072
:1100A200C007C006C005120062D005D006D00780C7BE
:06003500E478FFF6D8FD9F
:200013007900E94400601B7A009000B7780175A000E493F2A308B8000205A0D9F4DAF275DC
:02003300A0FF2C
:20003B007800E84400600A790175A000E4F309D8FC7800E84400600C7900900001E4F0A3C3
:04005B00D8FCD9FAFA
:0D0006007581071200B3E58260030200035C
:0400B3007582002230
:00000001FF
