:03000000020006F5
:20005F0075083F750906750A5B750B4F750C66750D6D750E7D750F0775107F75116F02003C
:01007F00037D
:030003000200D127
:20008000E582FF24F94042EF2F90008D73803A800A80108016801C80228028D2A4D2A3D2A0
:2000A000A28026D2A4D2A3C2A2801ED2A4C2A3D2A28016D2A4C2A3C2A2800EC2A4D2A3D2AC
:1C00C000A28006C2A4D2A3C2A2E5122408F987802275120175820212008080F5F0
:06003500E478FFF6D8FD9F
:200013007900E94400601B7A009000E0780175A000E493F2A308B8000205A0D9F4DAF275B3
:02003300A0FF2C
:20003B007800E84400600A790175A000E4F309D8FC7800E84400600C7900900001E4F0A3C3
:04005B00D8FCD9FAFA
:0D0006007581121200DCE582600302000328
:0400DC007582002207
:00000001FF
