:03000000020006F5
:03005F0002000399
:0300030002006296
:200062009013881200897590017F0090C350C007120089D007E590FE25E0F5900FBF080084
:1500820040E975900180E2AE82AF831EBEFF011FEE4F70F722B5
:06003500E478FFF6D8FD9F
:200013007900E94400601B7A0090009B780175A000E493F2A308B8000205A0D9F4DAF275F8
:02003300A0FF2C
:20003B007800E84400600A790175A000E4F309D8FC7800E84400600C7900900001E4F0A3C3
:04005B00D8FCD9FAFA
:0D000600758107120097E582600302000378
:04009700758200224C
:00000001FF
