:03000000020006F5
:03005F0002000399
:0300030002007E7A
:20006200AE82AF838E048F051EBEFF011FEC4D600A7DEF7C02DDFEDCFC80E9227F00C2A04F
:2000820020B3FD900014C007120062D00730B3FD900014C007120062D0070FBF08027F00EB
:1400A2008F068EF005F07401800225E0D5F0FBF4F5A080CCB1
:06003500E478FFF6D8FD9F
:200013007900E94400601B7A009000BA780175A000E493F2A308B8000205A0D9F4DAF275D9
:02003300A0FF2C
:20003B007800E84400600A790175A000E4F309D8FC7800E84400600C7900900001E4F0A3C3
:04005B00D8FCD9FAFA
:0D0006007581071200B6E582600302000359
:0400B600758200222D
:00000001FF
