:03000000020006F5
:03005F0002000399
:0300030002008375
:20006200AE82AF83EE4F60187C627D008C028D031CBCFF011DEA4B70F31EBEFF011F80E402
:0D00820022C290900096120062D29080F48D
:06003500E478FFF6D8FD9F
:200013007900E94400601B7A00900093780175A000E493F2A308B8000205A0D9F4DAF27500
:02003300A0FF2C
:20003B007800E84400600A790175A000E4F309D8FC7800E84400600C7900900001E4F0A3C3
:04005B00D8FCD9FAFA
:0D00060075810712008FE582600302000380
:04008F007582002254
:00000001FF
