:03000000020006F5
:20005F00750864750D3F750E06750F5B75104F75116675126D75137D75140775157F75169A
:16007F006F75177775187C751939751A5E751B79751C710200032C
:030003000200BA3E
:20009500858209E509600A750A7DD50AFD150980F222E582240DF98780D2A6C2A67580C02C
:2000B500D2A7C2A722C2A6C2A775B0FE85B00B530BF074F0B50B02805475820A120095748F
:2000D500F0B50B02804785B00B747EB50B02802274BEB50B02801674DEB50B02800A74EE72
:2000F500B50B12750C00800D750C018008750C028003750C0374F0B50B02800885B00B5336
:200115000BF080F1850C821200A77590FE75B0FD85B00B530BF074F0B50B02805475820AE4
:2001350012009574F0B50B02804785B00B747DB50B02802274BDB50B02801674DDB50B02E5
:20015500800A74EDB50B12750C04800D750C058008750C068003750C0774F0B50B0280086D
:2001750085B00B530BF080F1850C821200A77590FC75B0FB85B00B530BF074F0B50B02804A
:200195005475820A12009574F0B50B02804785B00B747BB50B02802274BBB50B02801674D3
:2001B500DBB50B02800A74EBB50B12750C08800D750C098008750C0A8003750C0B74F0B5F7
:2001D5000B02800885B00B530BF080F1850C821200A77590F875B0F785B00B530BF074F09F
:2001F500B50B030200BE75820A12009574F0B50B030200BE85B00B7477B50B02802274B71E
:20021500B50B02801674D7B50B02800A74E7B50B12750C0C800D750C0D8008750C0E80036B
:1E023500750C0F74F0B50B02800885B00B530BF080F1850C821200A77590F00200BEED
:06003500E478FFF6D8FD9F
:200013007900E94400601B7A00900257780175A000E493F2A308B8000205A0D9F4DAF2753A
:02003300A0FF2C
:20003B007800E84400600A790175A000E4F309D8FC7800E84400600C7900900001E4F0A3C3
:04005B00D8FCD9FAFA
:0D00060075811C120253E5826003020003A5
:04025300758200228E
:00000001FF
