:2000000002000EC1000022FFFFFFFF020193787FE4F6D8FD75812002005502009AE493A392
:20002000F8E493A34003F68001F208DFF48029E493A3F85407240CC8C333C4540F4420C8D0
:20004000834004F456800146F6DFE4800B0102040810204080900003E47E019360BCA3FF3E
:20006000543F30E509541FFEE493A360010ECF54C025E060A840B8E493A3FAE493A3F8E4E3
:2000800093A3C8C582C8CAC583CAF0A3C8C582C8CAC583CADFE9DEE780BE758901D2A9D21A
:2000A000AF1202B07F021201C48F0A758C3C758AB0D28C751E0AAF1E151EEF6014E50A752E
:2000C000F00A84FFE50A75F00A84ADF01200E080E53000DFC200AD0A7F021201F480D42247
:2000E0008F168D17C2A6AF16EF9002A093FF8F80D2A6C2A6C2A775807ED2A7C2A77F051294
:200100000240C2A6AF17EF9002A093FF8F80D2A6C2A6C2A775807DD2A7C2A77F0512024038
:2001200022751500C2A1120006D2A0751300E513C394085023120006D2A112000630A0055C
:200140007514018003751400E51525E0FFEF4514F515C2A1051380D6120006AF15228F104B
:20016000851012751100E511C39408501BE51225E0F512C2A1120006A2D792A0120006D27F
:20018000A1120006051180DEC2A1120006D2A012000622C0E0C0D0758C3C758AB00509E5FC
:2001A0000970020508E509641445087012750800750900050AD200E50AB46403750A00D04D
:2001C000D0D0E0328F1812027B7FA012015E12025FAF1812015E12025F12027B7FA11201C7
:2001E0005E12025F1201218F191202907F0A120220AF19228F1A8D1BC2AF12027B7FA01285
:20020000015E12025FAF1A12015E12025FAF1B12015E12025F120290D2AF7F321202202285
:200220008F0D750E00750F00AF0D7E00C3E50F9FE50E9E500A050FE50F7002050E80E92288
:200240008F1C851C0BE50BD394004012750C7DE50CD394004004150C80F5150B80E7227550
:200260001D00D2A112000630A00BE51DC394FF5004051D80F2C2A112000622D2A012000694
:20028000D2A1120006C2A0120006C2A112000622C2A0120006D2A1120006D2A0120006220B
:1C02A0003F065B4F666D7D077F6F777C395E7971D2A1120006D2A012000622FF64
:00000001FF
