:03000000020006F5
:03005F0002000399
:0300030002007088
:20006200AE82AF831EBEFF011FEE4F70F7227590FF7F00E59025E0F59090C350C00712005D
:0B00820062D0070FBF080040EA80E3D7
:06003500E478FFF6D8FD9F
:200013007900E94400601B7A00900091780175A000E493F2A308B8000205A0D9F4DAF27502
:02003300A0FF2C
:20003B007800E84400600A790175A000E4F309D8FC7800E84400600C7900900001E4F0A3C3
:04005B00D8FCD9FAFA
:0D00060075810712008DE582600302000382
:04008D007582002256
:00000001FF
