:10053F008142241818244281C3663C18183C66C3B4
:08054F008040201008040201A5
:0F0567004800010028507896B4D2F041000000FF
:0D052700900005EFF0900004F07F327E00A0
:0B053400EF1FAC0670011E4C70F62299
:0804BB0090000DEEF0A3EFF03C
:1004C300E4FBFAFD90000DE0FEA3E0FF1205340B00
:1004D300EBAE0214243FF58274053EF583E493F4F6
:0D04E300F5907A00EB5407FB0DEDB408D73F
:0104F00022E9
:0804F10090000DEEF0A3EFF006
:1004F900E4FBFAFD90000DE0FEA3E0FF1205340BCA
:10050900EBAE02142447F58274053EF583E493F4B7
:0D051900F5907A00EB5407FB0DEDB408D708
:0105260022B2
:0804560090000DEEF0A3EFF0A1
:10045E00E4FBFAFD7F887E131205340BEBAE02141B
:10046E00244FF58274053EF583E493F4F5907A00FB
:10047E00EB5407FB0DEDB408DBE4FAFBFD7F887E41
:10048E00131205340BEBAE0214FFC374079FFFE487
:10049E009EFE744F2FF58274053EF583E493F4F5BA
:0C04AE00907A00EB5407FB0DEDB408D170
:0104BA00221F
:10055700758901758CFF758AD1D28CD2A9D2AF2249
:03000B000203EEFF
:1003EE00C0E0C083C082C0D075D000C000C006C0BF
:0103FE0007F7
:1003FF00C28C758CFF758AD1900000E004F0E4FF89
:10040F0074012FF582E43400F583E0FE900000E0E4
:10041F00D39E400F7401A807088002C333D8FC4253
:10042F0090800E7401A807088002C333D8FCF452E1
:08043F00900FEFB408CAD28C43
:0F044700D007D006D000D0D0D082D083D0E03202
:10000E00E490000BF0A3F07901E4900009F0A3F066
:10001E00E925E0F9F4F5907F207E4E12053490002C
:10002E000AE004F07006900009E004F0C390000AA4
:10003E00E09408900009E06480948040D390000C16
:10004E00E004F0700690000BE004F0C390000CE0AA
:10005E00940590000BE06480948040AB120557E449
:10006E0090000BF0A3F0900001E0F9E4900009F08D
:10007E00A3F0900009E0FEA3E0FF2402F5827400D5
:10008E003EF583E0FD74012FF58274003EF583ED9D
:10009E00F07FF47E0112053490000AE004F0700641
:1000AE00900009E004F0C390000AE0940790000964
:1000BE00E06480948040BB900008E9F07FF47E01FC
:1000CE0012053490000CE004F0700690000BE00472
:1000DE00F0C390000CE0940490000BE064809480D8
:1000EE004084E4900009F0A3F0900009E0FEA3E044
:1000FE00FFC39408EE64809480501C74012FF58227
:10010E0074003EF583E4F090000AE004F070DA909B
:10011E000009E004F080D27F307E75120534E49041
:10012E00000BF0A3F0E4900009F0A3F0900009E0BA
:10013E00FEA3E0FFC394FFEE64809480501312057B
:10014E002790000AE004F070E3900009E004F080CC
:10015E00DB900009E4F0A374FFF0900009E0FEA329
:10016E00E0FFD39400EE6480948040131205279034
:10017E00000AE024FFF0900009E034FFF080DBE499
:10018E00900009F0A3F0900009E0FEA3E0FFC394F5
:10019E00FFEE64809480501B900006EFF0900003F9
:1001AE0012052F90000AE004F070DB900009E004C5
:1001BE00F080D3900009E4F0A374FFF0900009E002
:1001CE00FEA3E0FFD39400EE64809480401B900069
:1001DE0006EFF090000312052F90000AE024FFF0C6
:1001EE00900009E034FFF080D3E4900009F0A3F012
:1001FE00900009E0FEA3E0FFC394FFEE64809480BC
:10020E00501B900007EFF090000212052F90000A8D
:10021E00E004F070DB900009E004F080D390000958
:10022E00E4F0A374FFF0900009E0FEA3E0FFD39486
:10023E0000EE64809480401B900007EFF090000267
:10024E0012052F90000AE024FFF0900009E034FF21
:10025E00F080D3E4900009F0A3F0900009E0FEA333
:10026E00E0FFC394FFEE64809480501B900008EF73
:10027E00F090000112052F90000AE004F070DB9060
:10028E000009E004F080D3900009E4F0A374FFF0BD
:10029E00900009E0FEA3E0FFD39400EE648094800A
:1002AE00401B900008EFF090000112052F90000AFD
:1002BE00E024FFF0900009E034FFF080D390000CB2
:1002CE00E004F0700690000BE004F0C390000CE028
:1002DE00940590000BE0648094805003020133C2B9
:1002EE00AFE4900009F0A3F0900009E0FEA3E0FF58
:1002FE00C3EE648094815018EFF4F5907F107E2742
:10030E00120534E004F070E0900009E004F080D8AB
:10031E007F107E27120534E490000BF0A3F07F606F
:10032E007EEA1204BB7F607EEA1204F17F607EEAF1
:10033E0012045690000CE004F0700690000BE004DE
:10034E00F0C390000CE0940490000BE06480948065
:04035E0040CC80FE11
:0300000002036296
:0C036200787FE4F6D8FD7581070203A93E
:10036E0002000EE493A3F8E493A34003F68001F297
:10037E0008DFF48029E493A3F85407240CC8C33390
:10038E00C4540F4420C8834004F456800146F6DF5F
:10039E00E4800B0102040810204080900567E47E83
:1003AE00019360BCA3FF543F30E509541FFEE49354
:1003BE00A360010ECF54C025E060A840B8E493A31B
:1003CE00FAE493A3F8E493A3C8C582C8CAC583CA46
:1003DE00F0A3C8C582C8CAC583CADFE9DEE780BEFE
:010576000084
:00000001FF
