:100141000A0854582D3143204D4355000E1257577C
:0C015100572E54584D43552E434F4D007F
:0700DF0012015E7F147E0098
:1000E600D3EF9400EE940040147D0A7C00ED1D7061
:0D00F600011CED4C70F7EF1F70E61E80E35B
:0101030022D9
:10012300D3EF9400EE940040147D647C00ED1D70C9
:0D013300011CED4C70F7EF1F70E61E80E31D
:01014000229C
:10015E008F80C2B5C2B47F0A7E001200E6D2B47F91
:09016E000A7E001200E6C2B42270
:100177008F80D2B5C2B47F0A7E001200E6D2B47F68
:090187000A7E001200E6C2B42257
:10010400C2A6C2A77F381200DF7F0F1200DF7F066E
:0F0114001200DF7F0112015E7F147E000200E601
:10008F001201047F911200DFE4FB74082BF8E6FFE6
:10009F001201771200E20BBB09F07FD112015E7FD4
:1000AF00327E001200E6E4FB74122BF8E6FF120119
:1000BF00777F287E001200E60BBB0DECE4FB7F1868
:1000CF0012015E7FC87E001201230BBB10F080FE71
:03000000020003F8
:0C000300787FE4F6D8FD75811F02004AEA
:10000F0002008FE493A3F8E493A34003F68001F278
:10001F0008DFF48029E493A3F85407240CC8C333F2
:10002F00C4540F4420C8834004F456800146F6DFC1
:10003F00E4800B0102040810204080900141E47E0F
:10004F00019360BCA3FF543F30E509541FFEE493B6
:10005F00A360010ECF54C025E060A840B8E493A37D
:10006F00FAE493A3F8E493A3C8C582C8CAC583CAA8
:10007F00F0A3C8C582C8CAC583CADFE9DEE780BE60
:01015D0000A1
:00000001FF
