:03000000020006F5
:20005F0075084D750961750A64750B65750C20750D42750E79750F20751000751145751234
:1C007F007275136275146975156175166F751767751865751972751A00020003B9
:03000300020139BE
:20009B00AE82AF83EE4F60147CC87D001CBCFF011DEC4D70F71EBEFF011F80E822AE82AF78
:2000BB0083EE4F60147C647D001CBCFF011DEC4D70F71EBEFF011F80E822858280C2B5C2BA
:2000DB00B490000A12009BD2B490000A12009BC2B422858280D2B5C2B490000A12009BD208
:2000FB00B490000A12009BC2B422C2A6C2A77582381200D590001412009B75820F1200D52D
:20011B0090001412009B7582061200D590001412009B7582011200D590001402009B12010B
:20013B00057582901200D590001412009B7F00EF2408F98782C0071200ED90001412009B2D
:20015B00D0070FBF090040E77582D21200D590003212009B7F00EF2411F98782C007120012
:20017B00ED90002812009BD0070FBF0D0040E77F00758218C0071200D59000C81200B8D00B
:09019B00070FBF100040EA80FECE
:06003500E478FFF6D8FD9F
:200013007900E94400601B7A009001A8780175A000E493F2A308B8000205A0D9F4DAF275EA
:02003300A0FF2C
:20003B007800E84400600A790175A000E4F309D8FC7800E84400600C7900900001E4F0A3C3
:04005B00D8FCD9FAFA
:0D00060075811A1201A4E582600302000357
:0401A400758200223E
:00000001FF
