:1000F0003F065B4F666D7D077F6F777C395E797158
:06008E00C2A77F057E0001
:10009400D3EF9400EE940040147D6E7C00ED1D704F
:0D00A400011CED4C70F7EF1F70E61E80E3AD
:0100B100222C
:10006300AB05D2A6EF9000F093F580C2A67580FF92
:10007300D2A77580FE12008ED2A6EB93F580C2A69E
:0B0083007580FFD2A77580FD02008E83
:0C010000C2AF53E71843E70143E7802239
:03010C00120124B9
:09010F0053E77FE4F5E6D2AF22CC
:0B01240012010075E64675E6B90022E6
:1000C900AD07AC068CE3EDF5E453E5F843E5011221
:0500D900010CAFE22262
:1000DE00EE54FEFEF5E3E4F5E453E5F843E50302E2
:0200EE00010C03
:1000B200AB07AA068AE3EBF5E453E5F843E5028DC4
:0700C200E212012402010F0C
:10000E00758901758C3C758AB0D2AFD2A9D28C7F1E
:10001E00007E201200C9A907E9C3943C4002E4F90E
:10002E00E50AC394144025E4F50A09FF7E20120068
:10003E00DEAD017E201200B2B93C02E4F9E975F0A2
:10004E000A84F508E975F00A8485F009AD09AF0850
:05005E0012006380CBDD
:03000B0002012FC0
:09012F00758C3C758AB0050A329A
:03000000020118E2
:0C011800787FE4F6D8FD75810A02000E25
:00000001FF
