:1006C7002D20002B20000000000000207869616EBB
:0A06D7007A616977656E64753A0078
:02075D00002278
:0D0608008F80D2B412075DC2B47F017E0066
:10061500D3EF9400EE940040147D647C00ED1D70D2
:0D062500011CED4C70F7EF1F70E61E80E326
:0106320022A5
:05075300C2B50206081A
:05075800D2B502060805
:1006E100C2A7C2A67F381207537F0C1207537F0699
:0806F1001207537F01020753B9
:080633008B378A3889398D3AB2
:10063B00E4F53BE53BC3953A5017AB37AA38A939DC
:10064B00853B827583001203B6FF120758053B806A
:01065B00E2BC
:01065C00227B
:1006A800C2A27F647E00EF1F70011EEF4E70F7D26A
:0E06B800A27E007F04EF1F70011EEF4E70F750
:0106C6002211
:1006F90020A2FDA2A2B340FB7F047E00EF1F700180
:050709001EEF4E70F729
:01070E0022C8
:10065D00C2A20FBF00010ED2A20FBF00010E0FBF2D
:10066D0000010EA2A292007E007F08EF1F70011EF6
:06067D00EF4E70F7A20031
:010683002254
:10068400E4FDFBFA12065DE433FFC43333335480D4
:10069400FEEDC3134EFD0BBB00010AEB64084A7068
:0306A400E3AF05BC
:0106A7002230
:10057E00E4FEEF139200EFC313FF30001DC2A20B77
:10058E00BB00010A0BBB00010AD2A27A007B08EB6A
:10059E001B70011AEB4A70F7801BC2A27A007B080F
:1005AE00EB1B70011AEB4A70F7D2A20BBB00010ACB
:0905BE000BBB00010A0EBE08B9D6
:0105C7002211
:10070F001206A81206F91206117FCC12057E7F443D
:03071F0002057E52
:100722001206A81206F91206117FCC12057E7FBEB0
:0307320002057E3F
:10051600120722120684A907120684AD077C00ED95
:100526007D00FCE9FDE48C308D31EC120206E4FB23
:10053600FA7980783D1200FB8F358E348D338C32FC
:10054600E4FFFE7DC87C42AB35AA34A933A832123B
:1005560000FBD3E5319400E530648094804008E4E4
:10056600FBFAF9783F8006E4FBFAF978BF12000A35
:0705760012023F8E308F31AD
:01057D00225B
:040446008E308F3134
:10044A0078327C007D007BFF7A0679CD7E007F05BD
:10045A00120390AF31AE30120735AB07AA067C27DC
:10046A007D101203E38F327C277D10AF03AE021298
:10047A0003E37E037FE8CFCDCFCECCCE1203E38F4A
:10048A00337C037DE8AF03AE021203E37E007F6490
:10049A00CFCDCFCECCCE1203E38F347C007D64AFB8
:1004AA0003AE021203E37E007F0ACFCDCFCECCCEBD
:1004BA001203E38F35AE02AF037C007D0A1203E319
:1004CA008D367FC3120753C3E53064809480500D84
:1004DA007BFF7A0679C77D02120633800B7BFF7A8F
:1004EA000679CA7D02120633E53260062430FF120D
:1004FA0007587B0174322BF8E62430FF120758BBE9
:0B050A0002057F2E1207580BBB05E90D
:0105150022C3
:1005C80078217C007D007BFF7A0679D27E007F0F40
:1005D80012039012070F1206E17F801207537B0067
:1005E8007A0079217D101206337FE87E0312061502
:1005F8007FC012075312051612044612070F80E92E
:100003000202ABE86480F8E933E83360110460F07E
:10001300ED33EC337009E8FCE9FDEAFEEBFF220463
:1000230060DED3EB9FEA9EE99DE8C2E78CF0C2F75E
:1000330095F0400CE8CCF8E9CDF9EACEFAEBCFFB2A
:1000430012027685D0F05804700320D5B3E804700B
:10005300075002B2D50202B592D5EC0460F7E4CCA6
:10006300C0E0C398F8603B94186008400DD0E0FBF3
:1000730002028DE4FBFAC9FC8028E830E406E4C9F7
:10008300FBE4CAFCE830E305E4C9CACBFCE8540747
:100093006010F8C3E913F9EA13FAEB13FBEC13FC52
:1000A300D8F130F52FC3E49CFCEF9BFFEE9AFEEDF5
:1000B30099FDD0E0FBEF4E4D4C701222DB030202A0
:1000C300B2EC2CFCEF33FFEE33FEED33FDED30E706
:1000D300EB02028DEF2BFFEE3AFEED39FDD0E0FB94
:1000E30050130BBB00030202B5ED13FDEE13FEEF3D
:0800F30013FFEC13FC02028D67
:1000FB00EC4D6011E8497017ED33EC3304600DE4FF
:10010B00FCFFFEFD22E933E8330470F80202AB1268
:10011B00027658046009E4CC248150062850090269
:10012B0002B52840030202B2C0E0EB4A7044B9802A
:10013B0006D0E0FB0202A1EF4E701CBD8008EBFF66
:10014B00EAFEE9FD80EBE98DF0A4FEE5F00201E4A7
:10015B00E9CDF9EAFEEBFFEF89F0A4FCE5F0CE89DF
:10016B00F0A42EFFE435F0CD89F0A42DFEE435F09C
:10017B008067EF4E7005BD80D780C3EF8BF0A4ACCA
:10018B00F0EE8BF0A42CFCE435F0F8EF8AF0A42C05
:10019B00E5F038FCE433CB8DF0A42CFCE5F03BF818
:1001AB00EE8AF0A42CFCE5F038F8E433CF89F0A408
:1001BB002CFCE5F038CF3400CE89F0A42FFFE5F00E
:1001CB003EFEE433C98DF0A42EFEE5F039CD8AF066
:1001DB00A42FFFE5F03EFEE43DFD33D0E0FB5007DE
:1001EB000BBB000F0202B5EC2CFCEF33FFEE33FE22
:0601FB00ED33FD02028D50
:1002010075F020800E75F010800575F0087D007E78
:10021100007F003392D530D503120438EC334010FF
:10022100EF33FFEE33FEED33FDEC33FCD5F0ED2281
:0E023100E5F0247EA2D513CC92E7CDCEFF22BD
:10023F00EDD2E7CD33EC3392D524814006E4FFFEB7
:10024F00FDFC22FCE4CFCECDCC24E0501174FF8016
:10025F00EDC3CC13CCCD13CDCE13CECF13CF0470B3
:07026F00F030D5DE02043877
:10027600E9D2E7C933E833F892D5EDD2E7CD33ECCE
:0702860033FC5002B2D52247
:10028D00EC30E7100FBF000C0EBE00080DBD0004D2
:10029D000BEB6014A2D5EB13FCED92E7FD2274FF7E
:1002AD00FCFDFEFF22E480F8A2D574FF13FC7D80D7
:0302BD00E480EFEB
:03000000020747AD
:0C074700787FE4F6D8FD75813B0205C800
:1002C000E709F608DFFA8046E709F208DFFA803E20
:1002D00088828C83E709F0A3DFFA8032E309F6080D
:1002E000DFFA8078E309F208DFFA807088828C8375
:1002F000E309F0A3DFFA806489828A83E0A3F60829
:10030000DFFA805889828A83E0A3F208DFFA804C02
:1003100080D280FA80C680D4806980F280338010D9
:1003200080A680EA809A80A880DA80E280CA803342
:1003300089828A83ECFAE493A3C8C582C8CCC583BA
:10034000CCF0A3C8C582C8CCC583CCDFE9DEE7808A
:100350000D89828A83E493A3F608DFF9ECFAA9F009
:10036000EDFB2289828A83ECFAE0A3C8C582C8CC5F
:10037000C583CCF0A3C8C582C8CCC583CCDFEADE78
:10038000E880DB89828A83E493A3F208DFF980CCDA
:1003900088F0EF60010E4E60C388F0ED2402B404D3
:1003A0000050B9F582EB2402B4040050AF2323457A
:0603B0008223900310738C
:1003B600BB010CE58229F582E5833AF583E02250FC
:1003C60006E92582F8E622BBFE06E92582F8E22246
:0D03D600E58229F582E5833AF583E4932260
:1003E300BC000BBE0029EF8DF084FFADF022E4CCFE
:1003F300F875F008EF2FFFEE33FEEC33FCEE9DECC7
:10040300984005FCEE9DFE0FD5F0E9E4CEFD22ED0C
:10041300F8F5F0EE8420D21CFEADF075F008EF2F56
:10042300FFED33FD4007985006D5F0F222C398FD47
:050433000FD5F0EA22E4
:0E043800C3E49FFFE49EFEE49DFDE49CFC22D5
:10073500C3EE6480948040028007C3E49FFFE49E7B
:02074500FE2292
:00000001FF
