:03000000020225D4
:0C022500787FE4F6D8FD75811D02001EF4
:100215003F065B4F666D7D077F6F777C395E797131
:10001E007580FF75A0FF758911758DDCE4F58B7504
:10002E008CFC758A17750D0CF50EF50BF50FE50D9D
:10003E0075F00A84F510E50D75F00A8485F011E56A
:10004E000E75F00A84F513E50E75F00A8485F0142A
:10005E00E50B75F00A84F516E50B75F00A8485F04C
:10006E0017750AFEE4F50C75880175A88AD28E758F
:10007E0009031201FA50107F0A1200091201FA50F8
:10008E000685080912015D85141B85161C85171D32
:0B009E00AB13AD11AF101200A980D70A
:1001FA00E4F508A2B5334208E50825E0F508A2B4FB
:0B020A00E4334208E508650924FF22E8
:10015D00C2AFE50920E00512018E8022E50920E1FC
:10016D001D050EE50ED3943B4003E4F50EE50E752B
:10017D00F00A84F513E50E75F00A8485F014D2AFFC
:01018D00224F
:03001B00020113CC
:10011300C0E0C0F0C083C082C0D075D000C000C0B2
:1001230001C002C003C004C005C006C007758DDC52
:10013300050FE50FC394644006750F001201B8D094
:1001430007D006D005D004D003D002D001D000D010
:0A015300D0D082D083D0F0D0E0328B
:1001B800050BE50BD3943B4006E4F50B1201D9E59A
:1001C8000B75F00A84F516E50B75F00A8485F017AF
:0101D8002204
:1001D900050EE50ED3943B4006E4F50E12018EE5BB
:1001E9000E75F00A84F513E50E75F00A8485F0148E
:0101F90022E3
:10018E00050DE50DD394174003E4F50DE50DD3945D
:10019E0009400AE50D75F00A84F5108003E4F510A8
:0A01AE00E50D75F00A8485F01122BA
:06000300D2A7C2A77F0195
:10000900AD071FED600BE4FEEEC3947850F20E804D
:01001900F7EF
:01001A0022C3
:1000A900AC05C2A6EF90021593F580D2A6C2A6C2EE
:1000B900A775807E120003C2A6EC93F580D2A6C272
:1000C900A6C2A775807D120003EB93F580D2A6C264
:1000D900A675807B120003E51B93F580D2A6C2A604
:1000E900758077120003E51C93F580D2A6C2A67528
:1000F90080EF120003E51D93F580D2A6C2A6758094
:0A010900DFD2A7C2A77F01020009A0
:00000001FF
